{
  "_format": "hh-sol-artifact-1",
  "contractName": "DatingApp",
  "sourceName": "contracts/datting-app.sol",
  "abi": [
    {
      "inputs": [],
      "stateMutability": "nonpayable",
      "type": "constructor"
    },
    {
      "anonymous": false,
      "inputs": [
        {
          "indexed": true,
          "internalType": "address",
          "name": "user",
          "type": "address"
        }
      ],
      "name": "Blacklisted",
      "type": "event"
    },
    {
      "anonymous": false,
      "inputs": [
        {
          "indexed": true,
          "internalType": "address",
          "name": "from",
          "type": "address"
        },
        {
          "indexed": true,
          "internalType": "address",
          "name": "to",
          "type": "address"
        }
      ],
      "name": "LikeRemoved",
      "type": "event"
    },
    {
      "anonymous": false,
      "inputs": [
        {
          "indexed": true,
          "internalType": "address",
          "name": "from",
          "type": "address"
        },
        {
          "indexed": true,
          "internalType": "address",
          "name": "to",
          "type": "address"
        }
      ],
      "name": "LikeSent",
      "type": "event"
    },
    {
      "anonymous": false,
      "inputs": [
        {
          "indexed": true,
          "internalType": "address",
          "name": "user1",
          "type": "address"
        },
        {
          "indexed": true,
          "internalType": "address",
          "name": "user2",
          "type": "address"
        }
      ],
      "name": "MatchMade",
      "type": "event"
    },
    {
      "anonymous": false,
      "inputs": [
        {
          "indexed": true,
          "internalType": "address",
          "name": "user1",
          "type": "address"
        },
        {
          "indexed": true,
          "internalType": "address",
          "name": "user2",
          "type": "address"
        }
      ],
      "name": "MatchRemoved",
      "type": "event"
    },
    {
      "anonymous": false,
      "inputs": [
        {
          "indexed": true,
          "internalType": "address",
          "name": "user",
          "type": "address"
        },
        {
          "indexed": false,
          "internalType": "string",
          "name": "ipfsHash",
          "type": "string"
        }
      ],
      "name": "ProfileCreated",
      "type": "event"
    },
    {
      "anonymous": false,
      "inputs": [
        {
          "indexed": true,
          "internalType": "address",
          "name": "user",
          "type": "address"
        }
      ],
      "name": "ProfileDeleted",
      "type": "event"
    },
    {
      "anonymous": false,
      "inputs": [
        {
          "indexed": true,
          "internalType": "address",
          "name": "user",
          "type": "address"
        },
        {
          "indexed": false,
          "internalType": "string",
          "name": "ipfsHash",
          "type": "string"
        }
      ],
      "name": "ProfileUpdated",
      "type": "event"
    },
    {
      "anonymous": false,
      "inputs": [
        {
          "indexed": true,
          "internalType": "address",
          "name": "user",
          "type": "address"
        },
        {
          "indexed": true,
          "internalType": "address",
          "name": "blockedUser",
          "type": "address"
        }
      ],
      "name": "UserBlocked",
      "type": "event"
    },
    {
      "anonymous": false,
      "inputs": [
        {
          "indexed": true,
          "internalType": "address",
          "name": "user",
          "type": "address"
        },
        {
          "indexed": true,
          "internalType": "address",
          "name": "unblockedUser",
          "type": "address"
        }
      ],
      "name": "UserUnblocked",
      "type": "event"
    },
    {
      "anonymous": false,
      "inputs": [
        {
          "indexed": true,
          "internalType": "address",
          "name": "user",
          "type": "address"
        }
      ],
      "name": "Verified",
      "type": "event"
    },
    {
      "anonymous": false,
      "inputs": [
        {
          "indexed": true,
          "internalType": "address",
          "name": "user",
          "type": "address"
        }
      ],
      "name": "Whitelisted",
      "type": "event"
    },
    {
      "inputs": [
        {
          "internalType": "address",
          "name": "",
          "type": "address"
        }
      ],
      "name": "blacklist",
      "outputs": [
        {
          "internalType": "bool",
          "name": "",
          "type": "bool"
        }
      ],
      "stateMutability": "view",
      "type": "function"
    },
    {
      "inputs": [
        {
          "internalType": "address",
          "name": "user",
          "type": "address"
        }
      ],
      "name": "blacklistUser",
      "outputs": [],
      "stateMutability": "nonpayable",
      "type": "function"
    },
    {
      "inputs": [
        {
          "internalType": "address",
          "name": "userToBlock",
          "type": "address"
        }
      ],
      "name": "blockUser",
      "outputs": [],
      "stateMutability": "nonpayable",
      "type": "function"
    },
    {
      "inputs": [],
      "name": "deleteProfile",
      "outputs": [],
      "stateMutability": "nonpayable",
      "type": "function"
    },
    {
      "inputs": [
        {
          "internalType": "address",
          "name": "from",
          "type": "address"
        },
        {
          "internalType": "address",
          "name": "to",
          "type": "address"
        }
      ],
      "name": "getLikeInfo",
      "outputs": [
        {
          "internalType": "bool",
          "name": "liked",
          "type": "bool"
        },
        {
          "internalType": "uint256",
          "name": "timestamp",
          "type": "uint256"
        }
      ],
      "stateMutability": "view",
      "type": "function"
    },
    {
      "inputs": [
        {
          "internalType": "address",
          "name": "userA",
          "type": "address"
        },
        {
          "internalType": "address",
          "name": "userB",
          "type": "address"
        }
      ],
      "name": "isBlocked",
      "outputs": [
        {
          "internalType": "bool",
          "name": "",
          "type": "bool"
        }
      ],
      "stateMutability": "view",
      "type": "function"
    },
    {
      "inputs": [
        {
          "internalType": "address",
          "name": "user1",
          "type": "address"
        },
        {
          "internalType": "address",
          "name": "user2",
          "type": "address"
        }
      ],
      "name": "isMatch",
      "outputs": [
        {
          "internalType": "bool",
          "name": "",
          "type": "bool"
        }
      ],
      "stateMutability": "view",
      "type": "function"
    },
    {
      "inputs": [
        {
          "internalType": "address",
          "name": "to",
          "type": "address"
        }
      ],
      "name": "likeUser",
      "outputs": [],
      "stateMutability": "nonpayable",
      "type": "function"
    },
    {
      "inputs": [
        {
          "internalType": "address",
          "name": "",
          "type": "address"
        },
        {
          "internalType": "address",
          "name": "",
          "type": "address"
        }
      ],
      "name": "matches",
      "outputs": [
        {
          "internalType": "bool",
          "name": "",
          "type": "bool"
        }
      ],
      "stateMutability": "view",
      "type": "function"
    },
    {
      "inputs": [],
      "name": "owner",
      "outputs": [
        {
          "internalType": "address",
          "name": "",
          "type": "address"
        }
      ],
      "stateMutability": "view",
      "type": "function"
    },
    {
      "inputs": [
        {
          "internalType": "address",
          "name": "",
          "type": "address"
        }
      ],
      "name": "profiles",
      "outputs": [
        {
          "internalType": "string",
          "name": "ipfsHash",
          "type": "string"
        },
        {
          "internalType": "bool",
          "name": "verified",
          "type": "bool"
        },
        {
          "internalType": "uint256",
          "name": "createdAt",
          "type": "uint256"
        },
        {
          "internalType": "uint256",
          "name": "updatedAt",
          "type": "uint256"
        },
        {
          "internalType": "bool",
          "name": "active",
          "type": "bool"
        }
      ],
      "stateMutability": "view",
      "type": "function"
    },
    {
      "inputs": [
        {
          "internalType": "string",
          "name": "ipfsHash",
          "type": "string"
        }
      ],
      "name": "setProfile",
      "outputs": [],
      "stateMutability": "nonpayable",
      "type": "function"
    },
    {
      "inputs": [
        {
          "internalType": "address",
          "name": "newOwner",
          "type": "address"
        }
      ],
      "name": "transferOwnership",
      "outputs": [],
      "stateMutability": "nonpayable",
      "type": "function"
    },
    {
      "inputs": [
        {
          "internalType": "address",
          "name": "userToUnblock",
          "type": "address"
        }
      ],
      "name": "unblockUser",
      "outputs": [],
      "stateMutability": "nonpayable",
      "type": "function"
    },
    {
      "inputs": [
        {
          "internalType": "address",
          "name": "to",
          "type": "address"
        }
      ],
      "name": "unlikeUser",
      "outputs": [],
      "stateMutability": "nonpayable",
      "type": "function"
    },
    {
      "inputs": [
        {
          "internalType": "address",
          "name": "user",
          "type": "address"
        }
      ],
      "name": "verifyUser",
      "outputs": [],
      "stateMutability": "nonpayable",
      "type": "function"
    },
    {
      "inputs": [
        {
          "internalType": "address",
          "name": "user",
          "type": "address"
        }
      ],
      "name": "whitelistUser",
      "outputs": [],
      "stateMutability": "nonpayable",
      "type": "function"
    }
  ],
  "bytecode": "0x608060405234801561000f575f80fd5b50600580546001600160a01b0319163317905561171c8061002f5f395ff3fe608060405234801561000f575f80fd5b5060043610610106575f3560e01c80638da5cb5b1161009e578063e25d86611161006e578063e25d86611461028d578063f2fde38b146102f9578063f9f92be41461030c578063fcbca4561461032e578063ff1da10014610341575f80fd5b80638da5cb5b146101f0578063a5be91961461021b578063bbe1562714610256578063df6c5b2c1461027a575f80fd5b80634d813120116100d95780634d813120146101585780636d4540eb1461016b57806386c58d3e146101735780638cca6882146101c3575f80fd5b8063235b37b11461010a57806339d319e51461011f5780633da01325146101325780634a4c560d14610145575b5f80fd5b61011d6101183660046112d7565b610354565b005b61011d61012d36600461135e565b6105a0565b61011d61014036600461135e565b610692565b61011d61015336600461135e565b6109cb565b61011d61016636600461135e565b610a3d565b61011d610b52565b6101ae61018136600461137e565b6001600160a01b039182165f90815260036020908152604080832093909416825291909152205460ff1690565b60405190151581526020015b60405180910390f35b6101ae6101d136600461137e565b600260209081525f928352604080842090915290825290205460ff1681565b600554610203906001600160a01b031681565b6040516001600160a01b0390911681526020016101ba565b6101ae61022936600461137e565b6001600160a01b039182165f90815260026020908152604080832093909416825291909152205460ff1690565b61026961026436600461135e565b610bc5565b6040516101ba9594939291906113af565b61011d61028836600461135e565b610c7f565b6102e261029b36600461137e565b6001600160a01b039182165f908152600160208181526040808420949095168352928352908390208351808501909452805460ff1615158085529101549290910182905291565b6040805192151583526020830191909152016101ba565b61011d61030736600461135e565b611003565b6101ae61031a36600461135e565b60046020525f908152604090205460ff1681565b61011d61033c36600461135e565b611099565b61011d61034f36600461135e565b61110e565b335f8181526004602052604090205460ff161561038c5760405162461bcd60e51b815260040161038390611426565b60405180910390fd5b816103ce5760405162461bcd60e51b815260206004820152601260248201527112541194c81a185cda081c995c5d5a5c995960721b6044820152606401610383565b335f9081526020819052604081206002015490036104e7576040518060a0016040528084848080601f0160208091040260200160405190810160405280939291908181526020018383808284375f920182905250938552505050602080830182905242604080850182905260608501919091526001608090940193909352338252819052208151819061046190826114e3565b50602082015160018201805491151560ff1992831617905560408084015160028401556060840151600384015560809093015160049092018054921515929091169190911790555133907fbafddecbd1dec1c1afb76d693f1de16901f521bdf29a02438e3e6806c0b8d948906104da90869086906115a3565b60405180910390a2505050565b335f9081526020819052604090206004015460ff1661053a5760405162461bcd60e51b815260206004820152600f60248201526e141c9bd99a5b194819195b195d1959608a1b6044820152606401610383565b335f9081526020819052604090206105538385836115d1565b50335f818152602081905260409081902042600390910155517fdd635a4cd84864e37e4479dbfc2ec667acfa473c83c8422a8ac9d9d07599b01c906104da90869086906115a3565b505050565b335f8181526020819052604090206004015460ff166105d15760405162461bcd60e51b81526004016103839061168b565b335f9081526003602090815260408083206001600160a01b038616845290915290205460ff166106365760405162461bcd60e51b815260206004820152601060248201526f155cd95c881b9bdd08189b1bd8dad95960821b6044820152606401610383565b335f8181526003602090815260408083206001600160a01b0387168085529252808320805460ff19168155600101839055519092917fdabcca1ac97c7d80dd63b7bd70c95d1552b8a24b11a129187f4ad5da004be19f91a35050565b335f8181526020819052604090206004015460ff166106c35760405162461bcd60e51b81526004016103839061168b565b6001600160a01b0382165f90815260208190526040902060040154829060ff166106ff5760405162461bcd60e51b81526004016103839061168b565b6001600160a01b038316330361074f5760405162461bcd60e51b815260206004820152601560248201527421b0b73737ba10313637b1b5903cb7bab939b2b63360591b6044820152606401610383565b335f9081526003602090815260408083206001600160a01b038716845290915290205460ff16156107b45760405162461bcd60e51b815260206004820152600f60248201526e105b1c9958591e48189b1bd8dad959608a1b6044820152606401610383565b6040805180820182526001808252426020808401918252335f818152600383528681206001600160a01b038b168083529084528782209651875460ff191690151517875593519585019590955584529182528383209083529052205460ff161561087257335f8181526001602081815260408084206001600160a01b0389168086529252808420805460ff1916815590920183905590519092917f7534dd80554ad55a05f7f3b9871980b147060ad6dcb821a7dd4c20866e7c6b0091a35b6001600160a01b0383165f90815260016020908152604080832033845290915290205460ff16156108f7576001600160a01b0383165f818152600160208181526040808420338086529252808420805460ff1916815590920183905590519092917f7534dd80554ad55a05f7f3b9871980b147060ad6dcb821a7dd4c20866e7c6b0091a35b335f9081526002602090815260408083206001600160a01b038716845290915290205460ff161561099157335f8181526002602081815260408084206001600160a01b038916808652908352818520805460ff19908116909155938352818520868652909252808420805490931690925590519092917ff2477fd45f6785a68a2cbf07527a247088b0c4832b61085e209b41e93622299391a35b6040516001600160a01b0384169033907f3d76c88b04bca9304ddabcfabdd594e649c10be33d0519e4b9842431cbe57e2c905f90a3505050565b6005546001600160a01b031633146109f55760405162461bcd60e51b8152600401610383906116c2565b6001600160a01b0381165f81815260046020526040808220805460ff19169055517faab7954e9d246b167ef88aeddad35209ca2489d95a8aeb59e288d9b19fae5a549190a250565b6005546001600160a01b03163314610a675760405162461bcd60e51b8152600401610383906116c2565b6001600160a01b0381165f90815260208190526040902060040154819060ff16610aa35760405162461bcd60e51b81526004016103839061168b565b6001600160a01b0382165f9081526020819052604090206001015460ff1615610b015760405162461bcd60e51b815260206004820152601060248201526f105b1c9958591e481d995c9a599a595960821b6044820152606401610383565b6001600160a01b0382165f818152602081905260408082206001908101805460ff19169091179055517f6a6455914f452787eb3985452aceedc1000fb545e394eb3b370e3d08958e0a5b9190a25050565b335f8181526020819052604090206004015460ff16610b835760405162461bcd60e51b81526004016103839061168b565b335f81815260208190526040808220600401805460ff19169055517f517b492f6c7db035d7c3c4fa1ce0cb2d05e1f24219256f50fbab78242e544c049190a250565b5f60208190529081526040902080548190610bdf90611467565b80601f0160208091040260200160405190810160405280929190818152602001828054610c0b90611467565b8015610c565780601f10610c2d57610100808354040283529160200191610c56565b820191905f5260205f20905b815481529060010190602001808311610c3957829003601f168201915b505050600184015460028501546003860154600490960154949560ff9283169591945092501685565b335f8181526020819052604090206004015460ff16610cb05760405162461bcd60e51b81526004016103839061168b565b6001600160a01b0382165f90815260208190526040902060040154829060ff16610cec5760405162461bcd60e51b81526004016103839061168b565b335f8181526004602052604090205460ff1615610d1b5760405162461bcd60e51b815260040161038390611426565b6001600160a01b0384165f90815260046020526040902054849060ff1615610d555760405162461bcd60e51b815260040161038390611426565b6001600160a01b0385163303610da45760405162461bcd60e51b815260206004820152601460248201527321b0b73737ba103634b5b2903cb7bab939b2b63360611b6044820152606401610383565b335f9081526001602090815260408083206001600160a01b038916845290915290205460ff1615610e075760405162461bcd60e51b815260206004820152600d60248201526c105b1c9958591e481b1a5ad959609a1b6044820152606401610383565b6001600160a01b0385165f90815260036020908152604080832033845290915290205460ff1615610e7a5760405162461bcd60e51b815260206004820152601760248201527f596f752061726520626c6f636b656420627920757365720000000000000000006044820152606401610383565b335f9081526003602090815260408083206001600160a01b038916845290915290205460ff1615610ee55760405162461bcd60e51b81526020600482015260156024820152742cb7ba90313637b1b5b2b2103a3434b9903ab9b2b960591b6044820152606401610383565b6040805180820182526001808252426020808401918252335f8181528483528681206001600160a01b038d1680835293528681209551865460ff1916901515178655925194909301939093559251919290917fa827793dbef3cb574854de5207eaa8b47dfd8f5df5873fcc09a0e15266bfda059190a36001600160a01b0385165f90815260016020908152604080832033845290915290205460ff1615610ffc57335f8181526002602081815260408084206001600160a01b038b168086529083528185208054600160ff199182168117909255948452828620878752909352818520805490941690921790925590519092917fa1ddd412b0fb81f952dd7bfe7de90b060401a58be3c29e323faa99a58e45a3ba91a35b5050505050565b6005546001600160a01b0316331461102d5760405162461bcd60e51b8152600401610383906116c2565b6001600160a01b0381166110775760405162461bcd60e51b815260206004820152601160248201527024b73b30b634b2103732bb9037bbb732b960791b6044820152606401610383565b600580546001600160a01b0319166001600160a01b0392909216919091179055565b6005546001600160a01b031633146110c35760405162461bcd60e51b8152600401610383906116c2565b6001600160a01b0381165f81815260046020526040808220805460ff19166001179055517fffa4e6181777692565cf28528fc88fd1516ea86b56da075235fa575af6a4b8559190a250565b335f8181526020819052604090206004015460ff1661113f5760405162461bcd60e51b81526004016103839061168b565b6001600160a01b0382165f90815260208190526040902060040154829060ff1661117b5760405162461bcd60e51b81526004016103839061168b565b335f9081526001602090815260408083206001600160a01b038716845290915290205460ff166111e05760405162461bcd60e51b815260206004820152601060248201526f4e6f206578697374696e67206c696b6560801b6044820152606401610383565b335f8181526001602081815260408084206001600160a01b0389168086529252808420805460ff1916815590920183905590519092917f7534dd80554ad55a05f7f3b9871980b147060ad6dcb821a7dd4c20866e7c6b0091a3335f9081526002602090815260408083206001600160a01b038716845290915290205460ff161561059b57335f8181526002602081815260408084206001600160a01b038916808652908352818520805460ff19908116909155938352818520868652909252808420805490931690925590519092917ff2477fd45f6785a68a2cbf07527a247088b0c4832b61085e209b41e93622299391a3505050565b5f80602083850312156112e8575f80fd5b823567ffffffffffffffff808211156112ff575f80fd5b818501915085601f830112611312575f80fd5b813581811115611320575f80fd5b866020828501011115611331575f80fd5b60209290920196919550909350505050565b80356001600160a01b0381168114611359575f80fd5b919050565b5f6020828403121561136e575f80fd5b61137782611343565b9392505050565b5f806040838503121561138f575f80fd5b61139883611343565b91506113a660208401611343565b90509250929050565b60a081525f86518060a08401525f5b818110156113db576020818a0181015160c08684010152016113be565b505f60c0828501015260c0601f19601f830116840101915050611402602083018715159052565b84604083015283606083015261141c608083018415159052565b9695505050505050565b602080825260139082015272155cd95c881a5cc8189b1858dadb1a5cdd1959606a1b604082015260600190565b634e487b7160e01b5f52604160045260245ffd5b600181811c9082168061147b57607f821691505b60208210810361149957634e487b7160e01b5f52602260045260245ffd5b50919050565b601f82111561059b57805f5260205f20601f840160051c810160208510156114c45750805b601f840160051c820191505b81811015610ffc575f81556001016114d0565b815167ffffffffffffffff8111156114fd576114fd611453565b6115118161150b8454611467565b8461149f565b602080601f831160018114611544575f841561152d5750858301515b5f19600386901b1c1916600185901b17855561159b565b5f85815260208120601f198616915b8281101561157257888601518255948401946001909101908401611553565b508582101561158f57878501515f19600388901b60f8161c191681555b505060018460011b0185555b505050505050565b60208152816020820152818360408301375f818301604090810191909152601f909201601f19160101919050565b67ffffffffffffffff8311156115e9576115e9611453565b6115fd836115f78354611467565b8361149f565b5f601f84116001811461162e575f85156116175750838201355b5f19600387901b1c1916600186901b178355610ffc565b5f83815260208120601f198716915b8281101561165d578685013582556020948501946001909201910161163d565b5086821015611679575f1960f88860031b161c19848701351681555b505060018560011b0183555050505050565b6020808252601d908201527f50726f66696c6520696e616374697665206f72206e6f7420666f756e64000000604082015260600190565b6020808252600a908201526927b7363c9037bbb732b960b11b60408201526060019056fea26469706673582212205e9d83d3b077e6c9d468e9098a72beaf4f87f79b8f3f2c71d87a2bcecbc2dd6264736f6c63430008180033",
  "linkReferences": {},
  "deployedLinkReferences": {}
}